:020000040800F2
:10000000E0F10020D5010008DB1A0008691900089A
:10001000D91A0008F3040008AD220008000000000F
:10002000000000000000000000000000DF1A0008CF
:100030005507000800000000DD1A0008691D0008CF
:10004000EF010008EF010008EF010008EF010008D0
:10005000EF010008EF010008EF010008EF010008C0
:10006000EF010008EF010008EF010008EF010008B0
:10007000EF010008EF010008EF010008EF010008A0
:10008000EF010008EF010008EF010008EF01000890
:10009000EF010008EF010008EF010008EF01000880
:1000A000EF010008EF010008EF010008EF01000870
:1000B000EF010008EF010008EF010008EF01000860
:1000C000EF010008EF010008EF010008EF01000850
:1000D000EF010008A1220008EF010008EF0100086D
:1000E000EF010008EF010008EF010008EF01000830
:1000F000EF010008EF010008CD1D0008EF01000826
:10010000EF010008EF010008EF010008EF0100080F
:10011000EF010008EF010008EF010008EF010008FF
:10012000EF010008EF010008EF010008EF010008EF
:1001300000F002F800F03FF80AA090E8000C8244BA
:100140008344AAF10107DA4501D100F034F8AFF297
:10015000090EBAE80F0013F0010F18BFFB1A43F0A5
:10016000010318473441000054410000103A24BFF5
:1001700078C878C1FAD8520724BF30C830C144BF0C
:1001800004680C607047000000230024002500264E
:10019000103A28BF78C1FBD8520728BF30C148BFEA
:1001A0000B607047642900F07780002070471FB50E
:1001B0001FBD10B510BD00F071F91146FFF7F7FF34
:1001C00002F01CF900F08FF903B4FFF7F2FF03BC53
:1001D00002F006F90948804709480047FEE7FEE7B4
:1001E000FEE7FEE7FEE7FEE7FEE7FEE7FEE7FEE7E7
:1001F00004480549054A064B70470000CB1D00081E
:1002000031010008E0EB0020E0F10020E0ED0020EB
:10021000E0ED0020704700000FB4044910B503AAB8
:10022000029800F005F910BC5DF814FB08000020EE
:100230002DE9F0410E460446002020622046E16888
:10024000884730B3252805D0D4E901219047206A9A
:10025000401CF2E7E168204600278847050018D0D7
:10026000A5F14100192802D820354FF40067324625
:10027000294620462760FFF795FF40B1012804D0AA
:10028000F61D26F007060836D8E7361DD6E72846BD
:10029000DAE7206ABDE8F0812DE9F0410646002446
:1002A00010687529314616A510D0AFF300800028DC
:1002B00002DA404213A507E031688A0701D512A58A
:1002C00002E0490704D511A5012401E0AFF3008045
:1002D00000210A2206F1240709E0B0FBF2FCB0FB82
:1002E000F2F302FB1C00303078541846491C0028F9
:1002F000F3D123462A463046BDE8F04100F03EB82F
:10030000000000002D0000002B0000002000000075
:100310004FF0000200B5134694469646203922BF9E
:10032000A0E80C50A0E80C50B1F12001BFF4F7AFE9
:10033000090728BFA0E80C5048BF0CC05DF804EBCB
:10034000890028BF40F8042B08BF704748BF20F839
:10035000022B11F0804F18BF00F8012B7047704737
:1003600070477047704710B500F074F8006810BD12
:1003700010B5044600F06EF8046010BD2DE9F0479A
:100380000D4699469246044600F124080168880605
:1003900004D5E06921F01001216000E00120A842AD
:1003A00001DD471B00E00027A1697A1902EB090073
:1003B000081AA0612078C00602D42046AFF300805E
:1003C000002608E0D4E901211AF806009047206AC7
:1003D000401C761C20624E45F4DB2078C0060AD50E
:1003E0002046AFF3008006E0D4E901213020904799
:1003F000206A401C2062381EA7F10107F4DC07E0E8
:10040000D4E9012118F805009047206A401C2062B9
:10041000281EA5F10105F3DC2046AFF3008020780B
:10042000000602D50220BDE8F0870120FBE70000AE
:10043000074B70B50D467B4400F015F8044628467E
:1004400000F024F810B14FF0FF3070BD204670BDB1
:10045000AB1F0000004870477CEB002001694A1C7C
:1004600002610878704700B58FB0CDE901310021F5
:10047000059105497944CDE9031011466846FFF717
:10048000D7FE0FB000BD0000E5FFFFFF007B00F0CE
:1004900080007047004870477CEB00207546FFF7EE
:1004A000F9FFAE4605006946534620F00700854631
:1004B00018B020B5FFF79CFEBDE820404FF00006C5
:1004C0004FF000074FF000084FF0000B21F007013C
:1004D000AC46ACE8C009ACE8C009ACE8C009ACE87F
:1004E000C0098D4670470446AFF300802046FFF7F1
:1004F0006BFEFEE72DE9F05F90460F464FF00009D6
:1005000003F0F2FB7F4D294603F04EFC7E4E314650
:1005100003F0ECFA03F0ACFB7C4C2060384603F0AF
:10052000E3FB294603F040FC314603F0DFFA03F019
:100530009FFB60604FF0FF352946404603F011FEF7
:10054000834620686168084403F0CEFB294603F027
:1005500008FE06465946084603F026FC0746206872
:1005600003F0C2FB314603F01CFD012103F0F9FD4D
:10057000394603F0BBFA20F000408046594603F0AC
:1005800013FC594603F010FC594603F00DFCDFF84C
:1005900080A1514603F0AAFA0646206803F0A4FBA6
:1005A000594603F001FC314603F02CFA03F060FBDE
:1005B0006061606903F098FB064660682168084442
:1005C00003F092FB594603F0EFFB314603F0F4FCD5
:1005D00003F04EFBA061A06961690844A060A068B7
:1005E000C00702D0A068401CA060A06843F6982114
:1005F000484E494F884206DDA16848A0FFF70CFE2F
:100600000020BDE8F09F4146504603F06FFA03F02A
:10061000CDF94FF0C0424E4B01F00CFF02F01CFC34
:100620000146484603F0EEF981462946404603F06C
:1006300098FD8046494603F0B7FB494603F0B4FBFA
:100640000546206803F050FB294603F0DBF9E06122
:100650003068B0FBF7F003F05FFBE16903F070FC7A
:1006600005D83068B0FBF7F003F056FBE0610125D8
:1006700042E000BF04EB8506B1694FF07E5003F005
:1006800035FA01466069A84248461CDD03F0BAF914
:1006900081464046494603F087FB494603F084FB08
:1006A0000746206803F020FB394603F0ABF9F06100
:1006B0006069401EA8421ED15946484603F07CFCA2
:1006C00020F0004917E003F09DF9814601465846A5
:1006D00003F072FC20F000474046394603F064FB0B
:1006E000394603F061FB0746606803F0FDFA3946BE
:1006F00003F062FCF0616D1CA068A842BADC012026
:100700007FE700000000C845000070427000002034
:100710000000C04018000020E8FF1700464F524D6F
:100720005F4C454E20BBBAB4E6B3A4B6C8B2BBD743
:10073000E30D0AA3ACC7EBBDAB20464F524D5F4C57
:10074000454E20D0DEB8C4CEAA202564200D0A0074
:100750005555D53F704772B6FEE710B590F8211099
:100760000022022905D00421816380F82020012085
:1007700010BD01680B6823F00E030B6001680B6865
:1007800023F001030B6090F84030C46B012101FAA3
:1007900003F3636080F8211080F82020104610BD1C
:1007A0002DE9F05F90F821100024022903D00421E4
:1007B0008163012485E001680A6822F00E020A6064
:1007C00001680A6822F001020A603F4E3E4FB215EE
:1007D000DFF8F4C0DFF8F090DFF8ECA0DFF8E8B065
:1007E000DFF8E4E00168783F13011502ACF1640C16
:1007F000A9F15009AAF13C0AABF1280BAEF1140E95
:100800004FF48018B14227D9B9420ED0614512D0B9
:1008100049451DD0514518D0594518D0714501D1D1
:10082000424615E0294EB14201D1012210E0274E87
:100830001436B14201D110220AE0244E2836B142CA
:1008400006D0224A3C32914201D11A4600E02A46A3
:100850001E49091F0A602BE0B94213D0614517D029
:10086000494522D051451DD059451DD0714501D172
:1008700042461AE0B14202D14FF0807215E0134EA9
:10088000B14201D1012210E0104E1436B14201D123
:1008900010220AE00D4E2836B14206D00B4A3C32F7
:1008A000914201D11A4600E02A46074980394A6040
:1008B000012180F82110002180F82010416B01B146
:1008C00088472046BDE8F09F8000024008040240AF
:1008D00070B5044600F010F90546601C02D00448CB
:1008E0000078044400F008F9401BA042FAD370BD20
:1008F0000C0000202DE9F84FDFF8C8910024A9F181
:10090000040B23460F2709F1040AABF1040ED1E0D2
:100910000125A54006EA0502AA4276D1DFF8A8C162
:100920004E68A6EB0C0866452BD00DDC032E34D0A8
:1009300005DC36B3012E19D0022E2FD11BE0112E6B
:1009400016D0122E2AD119E0B8F5881F19D006DC6E
:10095000B8F5803F15D0B8F5801F1FD111E0B8F56C
:10096000001F0ED0B8F5041F18D10AE0CB6815E0BF
:10097000CB681B1D12E0CB6808330FE0CB680C334B
:100980000CE08B682BB1012B4FF0080303D04561BD
:1009900004E0042302E0056100E00023FF2A01D8FF
:1009A000064601E000F104064FEA840501D9A5F1ED
:1009B0002005D6F8008007FA05FC28EA0C0803FA9F
:1009C00005F548EA0508C6F800804D68ED0070D5C9
:1009D0003E4DAE6946F00106AE61AD6924F00306F6
:1009E00005F0010500953A4D06EB050CDCF80850C2
:1009F000A607360F07FA06F825EA0805DFF8D480BF
:100A0000404503D14FF0000825E052E0DFF8C880F0
:100A1000404502D14FF001081DE0DFF8C08040459D
:100A200002D14FF0020816E0DFF8B480404502D151
:100A30004FF003080FE0DFF8AC80404502D14FF0E3
:100A4000040808E0DFF8A080404502D14FF0050817
:100A500001E04FF0060808FA06F848EA0508CCF865
:100A600008804D68D9F80060ED024D4601D5164367
:100A700000E096432E604D68DAF80060AD025546FE
:100A800001D5164300E096432E604D68DBF8006008
:100A9000AD035D4601D5164300E096432E604D68D8
:100AA000DEF80060ED03754601D5164300E096437D
:100AB0002E60641C0A681646E2407FF429AFBDE848
:100AC000F88F0000080401400000111000100240DF
:100AD0000000014000080140000C014000100140EE
:100AE0000014014000180140001C01400AB10161DE
:100AF00070470904FBE70000014880687047000068
:100B00000C0000200248816802781144816070471F
:100B10000C000020074810B5016841F01001016089
:100B2000032000F075F80F2000F006F800F024F81C
:100B3000002010BD0020024070B50D4D04464FF45A
:100B40007A712878B1FBF0F00A490968B1FBF0F03E
:100B500000F0DCFA48B9102C07D200222146501EC2
:100B600000F036F800206C6070BD012070BD000000
:100B70000C000020180000200C4808B5816941F0E5
:100B800001018161816901F001010091C16941F0B8
:100B90008051C161C06900F08050009004484168F4
:100BA00021F0E06141F00071416008BD0010024099
:100BB00000000140002809DB00F01F0201219140E4
:100BC0004009800000F1E020C0F8001170470000EB
:100BD000F0B40E4B1B680C46C3F30223C3F10705A8
:100BE000042D00D90425191D072901D2002300E096
:100BF000DB1E012606FA05F1491E214099409E4060
:100C0000761E16403143F0BC01F065BB0CED00E0F0
:100C1000064900F0070208684FF6FF03184040EA53
:100C20000220034A10430860704700000CED00E00A
:100C30000000FA052DE9F0470F46050061D0434E4C
:100C4000306800F00700B84209D2306820F0070091
:100C500038433060306800F00700B84251D128684E
:100C60003B4C810712D5400703D5606840F4E06033
:100C700060602878000703D5606840F460506060C9
:100C80006068A96820F0F000084360602878C00719
:100C900028D06868012810D02168022810D0890760
:100CA00000292EDA616821F0030101436160FFF73A
:100CB00023FF804641F288390DE021688903EFE780
:100CC0008901EDE7FFF718FFA0EB0801494502D9BC
:100CD0000320BDE8F0876068696800F00C00B0EBA5
:100CE000810FEFD1306800F00700B8420BD93068AF
:100CF00020F0070038433060306800F00700B84249
:100D000001D00120E5E72878400705D56068E9684B
:100D100020F4E060084360602878000706D560682A
:100D2000296920F4605040EAC100606000F038F8A2
:100D30006168084AC1F30311515CC8400649086064
:100D400006480068FFF7F8FE0020C2E700200240D6
:100D500000100240F04100081800002010000020A0
:100D60000448054900684968044AC1F30221515CFE
:100D7000C8407047180000200010024000420008E0
:100D80000448054900684968044AC1F3C221515C1E
:100D9000C8407047180000200010024000420008C0
:100DA0000E4A51680E4801F00C03042B11D0082B99
:100DB0000FD10C48C1F38343C903C05C0AD5516805
:100DC000084AC1F34041921E515C054A5043B0FBB2
:100DD000F1F070470449484370470000001002409A
:100DE00000127A00E041000800093D002DE9F84FAB
:100DF000040070D02078C04DC00749D06868C0F3A7
:100E00008100012807D06868C0F38100022809D159
:100E10006868C00306D52868800339D56068002853
:100E2000E7D035E06068B0F5803F0BD010B1B0F589
:100E3000A02F11D0286820F480302860286820F482
:100E4000802002E0286840F480302860606890B11B
:100E5000FFF752FE06460AE0286840F4802028602A
:100E6000F0E700BFFFF748FE801B642873D82868AE
:100E70008003F7D50CE0FFF73FFE064605E000BF14
:100E8000FFF73AFE801B6428F0D828688003F7D467
:100E900020789A4E80074FF001094FF0000839D5AD
:100EA000686810F00C0F07D06868C0F38100022852
:100EB00009D16868C00306D42868800714D5206962
:100EC000012808D110E02069B0B1C6F80090FFF702
:100ED00013FE074605E00AE1FFF70EFEC01B0228DD
:100EE000C4D828688007F7D52868616920F0F80021
:100EF00040EAC10028600DE0C6F80080FFF7FCFD65
:100F0000074604E0FFF7F8FDC01B022823D8286835
:100F10008007F7D4207800072CD57948A169D9B18A
:100F2000C0F80090FFF7E8FD074604E0FFF7E4FD96
:100F3000C01B02280FD8686A8007F7D571484FF4A4
:100F4000FA510068B0FBF1F0009000BF0098411E1C
:100F50000091FAD20EE080E0C0F80080FFF7CCFDEF
:100F6000074604E0FFF7C8FDC01B022875D8686A71
:100F70008007F7D42078400760D5E8690027C000D3
:100F800008D4E86940F08050E861E869012700F082
:100F9000805000905C480168C90513D401688346FD
:100FA00041F480710160FFF7A7FD824606E000BFB3
:100FB000FFF7A2FDA0EB0A0064284ED8DBF8000082
:100FC000C005F5D5E06801280AD008B1052813D07E
:100FD000286A20F001002862286A20F0040002E05C
:100FE000286A40F001002862E06841F2883B98B12D
:100FF000FFF782FD82460BE0286A40F00400286279
:10100000EEE700BFFFF778FDA0EB0A0159455AD87B
:10101000286A8007F6D50CE0FFF76EFD824605E0F2
:10102000FFF76AFDA0EB0A0159454CD8286A8007F2
:10103000F6D41FB1E86920F08050E861E06988B318
:101040006968C1F38101022944D00228C6F8608092
:1010500004D0FFF751FD044638E034E0FFF74CFDC3
:10106000074604E0FFF748FDC01B02282BD828687C
:101070008001F7D4206AB0F5803F05D16868A16887
:1010800020F4003008436860D4E908010843696827
:1010900021F4741108436860C6F86090FFF72CFDD6
:1010A000044606E025E000BFFFF726FD001B0228EE
:1010B00009D828688001F7D51BE000BFFFF71CFDA9
:1010C000001B022802D90320BDE8F88F28688001A0
:1010D000F4D40EE00128F7D06868226A00F4803169
:1010E000914204D1616A00F47010884201D001205D
:1010F000EAE70020E8E7000000100240000042425A
:1011000080044242180000200070004010B5401ECC
:10111000B0F1807F01D3012010BD4FF0E024606169
:101120000F21601701F0D7F80020A061072020618F
:10113000002010BD10B590F83C20012A22D00122D9
:1011400080F83C20CA688C6822F4407222434C68C4
:1011500022F4806222430C6822F4006222430C696C
:1011600022F4805222434C6922F400522243C9697E
:10117000002322F480420A4301684A6480F83C302C
:10118000002010BD022010BD70B590F83C20012A4F
:101190002CD0012480F83C40022280F83D200368D6
:1011A0005A689D6822F070060A6832435A60104BF4
:1011B00002689A420ED00F4B9A420BD0B2F1804F88
:1011C00008D00D4B9A4205D00C4B9A4202D00C4BE2
:1011D0009A4204D1496825F080031943916080F850
:1011E0003D40002180F83C10084670BD022070BDD3
:1011F000002C014000340140000400400008004081
:10120000000C004010B5040003D094F83D0010B16C
:1012100007E0012010BD002084F83C00204600F0CB
:101220001FF8022084F83D00211D206800F0D0FD49
:10123000012084F8460084F83E0084F83F0084F8DA
:10124000400084F8410084F8420084F8430084F8A8
:10125000440084F8450084F83D00002010BD0000E3
:1012600008B500680B49884212D10B48816941F4E6
:10127000005181618069002200F400500090114605
:101280002E20FFF7A5FCBDE808402E20FFF792BCFA
:1012900008BD0000003401400010024070B5044653
:1012A00090F83C000025012817D0012684F83C6006
:1012B000022084F83D002068826822F0770222F440
:1012C0007F4282600868502838D00DDC20284FD03B
:1012D00005DC90B3102811D14AE0022070BD3028FF
:1012E00046D040280AD13BE060282FD070280DD08E
:1012F000B0F5805F03D0B0F5005F12D0012584F80F
:101300003D60002084F83C00284670BDCB68D1E9E0
:101310000121206800F0AFFD2068816841F077016D
:1013200009E0CB68D1E90121206800F0A4FD206824
:10133000816841F480418160E1E719E0CA68496849
:10134000206800F09DFE5021206806E0CA684968C8
:10135000206800F0A6FE6021206800F096FDCEE730
:10136000CA684968206800F08BFE40212068F4E7D5
:10137000226801461046F0E700B585B000210091D3
:1013800001910291039100680B49884211D10B48E9
:10139000816941F0100181618069694600F01000A7
:1013A0000490402000900220019003900448FFF731
:1013B000A1FA05B000BD0000003401400010024059
:1013C0000010014070B5044690F83C00002501284B
:1013D0000FD0012084F83C006AB1042A0FD0082AFB
:1013E00011D00C2A13D00125002084F83C00284697
:1013F00070BD022070BD206800F050FDF4E7206849
:1014000000F07CFDF0E7206800F0AEFDECE720681E
:1014100000F0DEFDE8E710B5040003D094F83D00CD
:1014200010B107E0012010BD002084F83C002046E8
:1014300000F01EF8022084F83D00211D206800F015
:10144000C7FC012084F8460084F83E0084F83F0081
:1014500084F8400084F8410084F8420084F8430096
:1014600084F8440084F8450084F83D00002010BD55
:101470007047000030B500250446022249B1042916
:1014800012D0082946D094F8410001284DD00120FF
:1014900030BD94F83E000128F9D184F83E20206840
:1014A000C26842F0020209E094F83F000128EED140
:1014B00084F83F202068C26842F00402C260012222
:1014C000206800F0CBFC1E4920681E4A884201D0EB
:1014D000904203D1436C43F4004343642068884244
:1014E0000DD090420BD0B0F1804F08D01649884201
:1014F00005D01649884202D01549884204D1816836
:1015000001F00701062903D0016841F001010160E3
:10151000284630BD94F840000128B8D184F8402016
:101520002068C26842F00802C8E784F841200C290C
:1015300001D00125ECE72068C26842F01002BDE747
:10154000002C01400034014000040040000800402D
:10155000000C004070B50D0004464FF0000607D0A7
:10156000042D0AD0082D0DD00C2D10D001263FE0FF
:101570002068C16821F002010DE02068C16821F0F7
:10158000040108E02068C16821F0080103E0206838
:10159000C16821F01001C16000222946206800F0D6
:1015A0005DFC194B41F2111120688A10984202D05B
:1015B000164B984209D1036A0B4206D1036A1342C3
:1015C00003D1436C23F4004343642068036A0B4255
:1015D00006D1016A114203D1016821F001010160C5
:1015E00001203DB1042D08D0082D09D084F8410018
:1015F000304670BD84F83E00FAE784F83F00F7E714
:1016000084F84000F4E70000002C01400034014061
:1016100070477047F8B5016804460868CA684B69A6
:1016200010F00F0F4FF000055AD003F0010602F43E
:101630009077374365D0C10705D0D10503D5616CDC
:1016400041F001016164410705D5D90703D0616C00
:1016500041F002016164810705D5D90703D0616CAF
:1016600041F004016164010707D502F02001314314
:1016700003D0616C41F008016164616C00293BD0CA
:10168000800604D5900602D5204600F04BFD206868
:101690004069616CC0F3801001F0080101432046ED
:1016A0002BD000F018FD20684069400621D5206845
:1016B000143050E8001F21F0400140E80012002AD9
:1016C000F5D1E06BA8B16D494163E06BFFF768F8B5
:1016D000002811D0E06B416B01B0BDE8F040084735
:1016E00083060ED593060CD52046BDE8F84000F0E1
:1016F00019BD2046FFF78DFFF8BDFFF78AFF65642F
:10170000F8BD266B2023012E7CD1C6067AD5D606DD
:1017100078D508684868009048694FF0020640068E
:1017200040D5E16B086840680004000CE8D0A28D49
:101730008242E5D9E085886920282DD020680C30C8
:1017400050E8001F21F4807140E80012002AF5D112
:101750002168143151E8000F20F0010041E8000237
:10176000002AF5D12068143050E8001F21F0400114
:1017700040E80012002AF5D184F842302563206841
:101780000C3050E8001F21F0100140E80012002A40
:10179000F5D1E06BFEF7E1FF6663A08DE18D401AA5
:1017A00081B22AE0A08DE18D401A81B2E08D00283F
:1017B000A6D00029A4D022680C3252E8000F20F4F1
:1017C000907042E80007002FF5D12068143050E8EF
:1017D000002F22F0010240E80027002FF5D184F805
:1017E0004230256320680C3050E8002F22F01002B0
:1017F00040E80023002BF5D166632046FFF708FF81
:10180000F8BDFFE705062BD5150629D594F841004C
:101810002128F5D1A068B0F5805F01D12069B0B171
:10182000206A411C2162216800784860E08C401EDB
:101830000004000CE084E3D12068C16821F080013D
:10184000C1602068C16841F04001C160D8E7206AEA
:101850000088C0F308004860206A801C2062E5E729
:101860004006CDD55006CBD5CA68204622F04002AE
:10187000CA6084F8413000F076F8C1E7C72000085C
:1018800070B5040004D094F84100002510B106E0C2
:10189000012070BD84F84050204600F023F8242039
:1018A00084F841002068C16821F40051C1602046DD
:1018B00000F09AFC2068016921F4904101612068E0
:1018C000416921F02A0141612068C16841F4005159
:1018D000C1606564202084F8410084F8420065639B
:1018E000002070BD30B585B00024009401940294AE
:1018F00003940068184988422CD11848816941F442
:1019000080418161816901F480410491816941F0E4
:10191000040181618069124D00F0040004904FF4CD
:101920000070009002200190032003906946284631
:10193000FEF7E0FF2815CDE9000469462846029429
:10194000FEF7D8FF002211462520FFF741F9252098
:10195000FFF730F905B030BD0038014000100240FB
:101960000008014070477047FEE7000030B585B0C1
:10197000002418480094019402940394816941F46E
:1019800080718161816901F480710491816941F004
:1019900010018161816901F010010491816941F0B8
:1019A0000401816180690C4D00F004000490002264
:1019B00003212846FFF79AF8032000900120CDE983
:1019C00001040220039069462846FEF793FF05B004
:1019D00030BD0000001002400020014010B596B05C
:1019E00000240F9410941194129413941C2108A8AD
:1019F0001494FEF78DFC20216846FEF789FC2748E9
:101A00002549C0E900144FF6FF71C0E902410461A5
:101A100044618461FFF7F6FB08B1FEF79CFE4FF4CA
:101A200080500F900FA91D48FFF738FC08B1FEF752
:101A300092FE1A48FFF7EFFC08B1FEF78CFE1394F4
:101A400013A916481494FFF79FFB08B1FEF783FE15
:101A5000089409940A940B940C940D94002208A9FC
:101A60000E480E94FFF7AEFC08B1FEF774FE00942A
:101A70004FF40050CDE90440029401940394694668
:101A800006480794FFF756FB08B1FEF764FE0348CB
:101A9000FFF772FC16B010BD00340140ECEA0020E4
:101AA0000C4810B50A4901604FF4E1314160002152
:101AB00081600C22C160C0E904128161C161FFF73D
:101AC000DFFE002803D0BDE81040FEF744BE10BD85
:101AD0000038014034EB0020FEE7FEE77047704716
:101AE0002DE9F0473E490868C268D243920774D492
:101AF0006FF00202884602613A4C2078401C207048
:101B00002078394D022861D1002727702A7837487C
:101B100018214FF0FF39006805F10C06012A04D0A6
:101B2000022A47D0032A4ED11EE06B68B268521ECB
:101B3000934205D3022028702DA0FEF76DFB36E0FE
:101B4000B0FBF1F002F0E8F8616806EB8101C969C9
:101B500001F0CCFF494602F004FB02F0A5F8288111
:101B60006068401C60602EE06A6833695B1E9A42C0
:101B70000DD300211A48FFF7EDFC1B484EF66021FB
:101B80002830FEF7C5FB67602F701CA019E0B0FB82
:101B9000F1F002F0C1F8616806EB8101C96901F05A
:101BA000A5FF494602F0DDFA02F07EF82881606860
:101BB000401ED7E76868F168884204D30320287084
:101BC00011A0FEF729FB6868401C6860D8F8000087
:101BD000416A2A89114489B24163BDE8F087000057
:101BE0001C000020000000206400002018000020DD
:101BF000D4C8CBD9D7B4CCAC0D0A0000CDA3D6B98C
:101C0000D7B4CCAC0D0A0000BCF5CBD9D7B4CCAC62
:101C10000D0A0000F0B51B4885B0816941F4807160
:101C20008161816901F480710491816941F0100141
:101C30008161816901F010010491816941F4807131
:101C400081618069012400F480700094019403256F
:101C50000294CDE903500C4F69463846FEF74AFE20
:101C60000226694638460096FEF744FE4020CDE93C
:101C7000000669460548CDE90245FEF73BFE05B082
:101C8000F0BD0000001002400020014000100140A3
:101C900070B5274D1E462B780BB1002070BDFEF7A6
:101CA00029FC0028FAD02348002E02DA76420122CD
:101CB00000E000220121FEF719FF1D4C0C34A06842
:101CC000B6EB400F2FDB26612069A168401AE06067
:101CD00000262E606E60AE600120287016A0FEF710
:101CE0009BFA6E60174818210068B0FBF1F002F013
:101CF00013F8E16901F0FAFE711E02F032FA01F008
:101D0000D3FF2881104801684E6229890068416329
:101D1000012200210D4800F0A1F800210A48FFF738
:101D2000A9FB012070BD0AA0FEF776FAB5E7000016
:101D30006400002000200140BCD3CBD9D7B4CCAC88
:101D40000D0A0000180000201C0000200034014093
:101D5000BCD3BCF5CBD9B2CECAFDC9E8D6C3B4ED6D
:101D6000CEF3A3A10D0A0000FEF7CCBE30B58FB0B4
:101D700028216846FEF7CCFA14210AA8FEF7C8FA13
:101D800001210804CDE900100024029402250491E9
:101D9000CDE907504FF4E01009906846FFF726F8A8
:101DA00008B172B6FEE70F20CDE90A054FF4806056
:101DB000CDE90C4002210AA80E94FEF73BFF002853
:101DC00001D072B6FEE70FB030BD7047FFF788BE96
:101DD000F0B502681C4B1D4D1D4E1E4F1E4C4FF0A2
:101DE000804C984209D0A04207D0604505D0A84257
:101DF00003D0B04201D0B84204D122F0700E4A683C
:101E000042EA0E02984209D0A04207D0604505D0B0
:101E1000A84203D0B04201D0B84203D122F44075A9
:101E2000CA682A434D6922F080022A4302608A6808
:101E3000C2620A688262984201D0A04201D1096957
:101E4000016301214161F0BD002C0140000400400C
:101E500000080040000C00400034014010B501F0C3
:101E60001F030121046A99408C430462016A9A406D
:101E70001143016210BD10B5846842EA032224F4C4
:101E80007F440A432243826010BD826822F07002C0
:101E90000A4342F00701816070470000F0B5036A11
:101EA000026A22F00102026242688469124E24F042
:101EB00073050C682C4323F002058B682B430D4DF2
:101EC000A84201D0B04205D123F00807CB683B43BC
:101ED00023F00403A84201D0B04205D14D6922F499
:101EE000407215438A692A434260846149684163AC
:101EF0000362F0BD002C014000340140F0B5026ADD
:101F0000036A23F010030362436884690D6824F4B4
:101F1000E64444EA05248D6822F0200242EA0512D4
:101F20000F4D104EA84201D0B04206D1CF6822F02A
:101F3000800242EA071222F04002A84201D0B042D9
:101F400007D14D6923F4406343EA85038D6943EA71
:101F5000850343608461496881630262F0BD0000CB
:101F6000002C014000340140F0B5026A036A23F4FA
:101F7000807303624368C46922F4007224F073051D
:101F80000C68124E2C438D6842EA05220E4DA84281
:101F900001D0B04206D1CF6822F4006242EA0722A3
:101FA00022F48062A84201D0B04207D14D6923F4E7
:101FB000405343EA05138D6943EA05134360C46146
:101FC0004968C1630262F0BD002C01400034014049
:101FD00030B5046A026A22F4805202624268C36920
:101FE0000D6823F4E64343EA05238D6824F4005486
:101FF00044EA0534084DA84202D0084DA84204D155
:102000004D6922F4804242EA85124260C361496808
:102010000164046230BD0000002C01400034014026
:10202000144810B5816988B041F40051816180691C
:10203000114900F4005007901048002401604FF649
:10204000FF71C1601821C0E9011404614461FFF708
:10205000E2F93020CDE900040820CDE902400494E3
:1020600005940022694605480694FFF7ABF908B0CD
:1020700010BD000000100240003401401C00002090
:1020800010B5036A046A24F001040462846924F030
:10209000F00444EA021423F00A020A438461026253
:1020A00010BD10B5036A046A24F010040462846948
:1020B00023F0A00324F4704444EA023243EA0111FD
:1020C0008261016210BD10B5406A0021C185C184E2
:1020D000FFF79FFA10BD01680C3151E8002F22F480
:1020E000907241E80023002BF5D10168143151E8CA
:1020F000002F22F0010241E80023002BF5D1016BF3
:10210000012909D101680C3151E8002F22F0100299
:1021100041E80023002BF5D1202180F84210002156
:102120000163704708B590F84210222901D00220BF
:1021300008BD82684FF480539A4201D1016921B1F0
:10214000816A9A421BD04AB10AE00268816A5268E9
:10215000C2F308020A80816A891C08E0026972B130
:102160000268526802F07F020A70816A491C81622B
:10217000C18D491E0904090CC18503D01BE002680A
:102180005268F1E70168CA6822F02002CA6001685B
:10219000CA6822F48072CA6001684A6922F00102AA
:1021A0004A61202180F8421000214163026B012A1C
:1021B00003D0FFF7D7FB002008BD016301680C3195
:1021C00051E8002F22F0100241E80023002BF5D146
:1021D00001680A68D20602D50A6849680091818DB3
:1021E000FFF716FAE7E7000070B5044600680169DA
:1021F000E26821F44051114301612169A06808435C
:10220000616908432168CA6841F20C639A4302433A
:10221000CA6020684169A26921F44071114341619B
:102220001E492068884202D1FEF7AAFD01E0FEF7B0
:1022300097FD00EBC00101EB001260686421800093
:10224000B2FBF0F3B3FBF1F36FF018067343B2FB8C
:10225000F0F5B2FBF0F605EB8305322303EB051531
:10226000B5FBF1F5B6FBF1F605F0F00505EB06154B
:10227000B2FBF0F6B2FBF0F0B0FBF1F06FF0180239
:10228000504306EB800003EB0010B0FBF1F0216837
:1022900000F00F002844886070BD00000038014045
:1022A0000148FFF7B7B9000034EB0020FEE7490012
:1022B00050EAC12018BF04204A0D18BF40F00100A9
:1022C00040F2FF72B2EB515F08BF40F002000128FC
:1022D00008BF052070470907090E002804DB00F13C
:1022E000E02080F80014704700F00F0000F1E020BB
:1022F00080F8141D70472DE9F0414F1E00EBC70117
:102300000446D1E9000115461E4637F006020DD0FD
:102310002A46334601F03AF87F1E04EBC703D3E99F
:10232000002300F0CBFD37F00602F1D1022F25D0BB
:10233000042F13D0062F18BFBDE8F0812A4633467C
:1023400001F024F8D4E90A2300F0B8FD2A46334608
:1023500001F01CF8D4E9082300F0B0FD2A4633460A
:1023600001F014F8D4E9062300F0A8FD2A4633460C
:1023700001F00CF8D4E9042300F0A0FD2A4633460E
:1023800001F004F8D4E9022300F098FD2A46334610
:1023900000F0FCFFD4E90023BDE8F04100F08EBD61
:1023A000002213461046014900F044BE0000F03FF1
:1023B00000F084BD002213461046114600F03ABEDC
:1023C00040F2013200204FF0E04101F09CBE0000DD
:1023D000024A0020110701F096BE000001FDFFFF38
:1023E0007047000004490A685206FCD5024AC1B28F
:1023F000121D11607047000000380140FEF78AFB93
:10240000FFF7B4FCFFF7B2FAFFF7E8FAFFF748FB73
:102410004FF4FA60FEF75CFA00F00EFD034B044A3D
:102420004FF4AD613C20FFF733FCFEE700A60E0041
:10243000CDCCCC3D2DE9F04D16460F4694B01C4650
:1024400021F0004123F00042002814BF4FF0010C9E
:102450004FF0000C0CEB470CFE4B0CEB03054FEA66
:10246000630C65452BD3350018BF012505EB4405EA
:102470001D44F94B9D4222D3F84B52EA060C02D080
:102480009F4205D148B914B000201946BDE8F08D2F
:10249000002808BF4FF0000C01D04FF0010C0CEBEE
:1024A000470313F5001F0AD8002E14BF4FF0010C8C
:1024B0004FF0000C0CEB440313F5001F07D914B0C8
:1024C000324623463946BDE8F04DFFF771BFDFF8CD
:1024D00090834FF0000A002FB8BF424523DAE14B4A
:1024E0009A42A8BF4FF0020A1DDADC4B93421ADC75
:1024F000DD4B03EB2253142B08DDC3F1340C26FA19
:102500000CF303FA0CFCB4450DD108E05EB9C3F13D
:10251000140C22FA0CF303FA0CFC944503D103F0DB
:102520000103C3F1020A51EA00031BD1002C19DA9E
:10253000002F18BFBAF1020F02D0BAF1010F07D075
:102540000220FDF715FF14B0BDE8F04DFFF728BFDE
:102550000220FDF70DFFFFF723FF14B081F00041CB
:10256000BDE8F08D330070D1424525D107F180429E
:1025700012F5801201BF00280020B84914B008BF2E
:10258000BDE8F08DB548884207DC002CA1BF184695
:10259000214614B0BDE8F08D07E0002CBFBF1846FF
:1025A00084F0004114B0BDE8F08DB0497944D1E920
:1025B000000114B0BDE8F08DDFF8A0C262452AD159
:1025C000002C24DA39B1414517D1002804BF00207E
:1025D00002461CD106E040B10220FDF7C9FEFFF71C
:1025E000EFFE0A46394600F0D7BA9D4A394614B084
:1025F000002062F31E01BDE8F08D08DA14B03B46FE
:10260000BDE8F04D02460020614600F013BD14B055
:102610003946BDE8F08D414517DAB4F1804F0CD052
:10262000A4F10053B3F1FF530FD13B1E0DDB14B0E7
:102630001946BDE8F04D00F0D9BB3B4614B0024648
:10264000BDE8F04D194600F0A1BE050027F000439B
:102650003AD1E1B1414537D1002F06DD002CA1BFB1
:102660000020414614B0BDE8F08D002F01DD002CA4
:102670001FDB002F16DA002C14DBBAF1010F4FF02C
:10268000000014BF76497A4914B0BDE8F08DBAF164
:10269000020F18BF002F0CD0BAF1010F09D1002F83
:1026A00007DA0BE0002FB8BF002C0DDABAF1010FEA
:1026B00004D0002014B00146BDE8F08D14B0002015
:1026C0004FF00041BDE8F08D4FF0010808EBE77CCA
:1026D000CDF814C05CEA0A0C0DD0DFF898C1624551
:1026E0007EDDDFF894C1654B624512DD8B420ADB6B
:1026F000002C18DB23E00120FDF73AFE14B0BDE802
:10270000F04DFFF757BE554A8A4202DC002C0ADC26
:1027100015E0994202DA002C11DA04E04F4B99429D
:1027200019DD002C0BDD0220FDF722FEFFF748FE2D
:102730004B4A14B061F31E021146BDE8F08D022031
:10274000FDF716FEFFF744FE444A14B061F31E0283
:102750001146BDE8F08D0022394601F03DF80746EC
:102760000D466FF0010201F0CEFC4FF05532444BA4
:1027700000F040FF3A462B4600F008FE0022414B95
:1027800000F038FF80468B463A462B4610461946E5
:1027900000F0FCFD42465B4600F0F8FD88460E90D6
:1027A0004FF0C042384B3846294600F0EFFD8346D3
:1027B0000091364A344B41460E9800F0E7FD8046C2
:1027C0000191334A334B3846294600F0DFFD42463B
:1027D000019B01F001F80D4602460B460C9000E00B
:1027E00011E05846009900F069FB002788465A46D8
:1027F0003846009B00F0F0FF2B460C9A00F0FAFEE2
:10280000024600F079B90020B1F5801F07DA3522C1
:102810002846194601F077FC05466FF0340000EBBE
:102820002150A0F2FF300190C1F3130040F07F610E
:1028300041F04051029118498842D8BF4FF0000B37
:1028400035DD16498142C8BF4FF0010B2FDC4FF038
:10285000000B25E0FFFF1F00FFFF0F000000F03F0F
:102860000000F07F0000404301FCFFFFE01C00007F
:102870000000F0FF0000E0410000F043FFFFEF3FE9
:102880005555D53F0000E03F4715F73FFE822B65C9
:1028900044DF5DF80BAE543E8E9803007AB60B0011
:1028A0000198401C01900298A0F580100290FF480A
:1028B0000299784400EBCB000991D0E90023284627
:1028C0000B93129200F088FF00910A9028460B9B10
:1028D000129A099900F0F2FA02460B460020F449D8
:1028E00000F0A8FBCDE90C010B46024600990A98BE
:1028F00000F04CFD0690EF48884600277844029986
:10290000006810904FF0005040EA610000EB8B40EF
:1029100000F5002102910B9B129A109800F05CFFC9
:102920002A46099B00F066FE3A46434600F02EFD1B
:102930000891129038464146029B109A00F026FDFD
:10294000009B0A9A00F056FE089B129A00F044FF82
:10295000DDE90C2300F01AFD0B91069A1290434614
:102960001046194600F012FD05460246D2480B46B5
:102970000A9106217844FFF7BEFC0A9B2A4608917B
:1029800002901046194600F001FD089B029A00F0E3
:10299000FDFC05460991434638461946069A00F063
:1029A0008DFA0B9B129A00F0F1FC2A46099B00F06D
:1029B00085FACDE908013A4643461046194600F02B
:1029C000E5FC0A910022BD4B009000F077FADDE9AA
:1029D000082300F073FA0D463A46B84B384600F02B
:1029E000FBFE0A9B009A00F0F7FEDDE9082300F0E9
:1029F00001FECDE908013A462B461046414600F05B
:102A0000C5FC00910A90DDE908014346069A00F0F2
:102A1000BDFC069088462B463A460B99129800F06A
:102A2000B5FC4346069A00F049FA80460B4602463A
:102A30000D9100990A9800F041FA00200F460546D2
:102A4000009B0A9A00F0C8FE42460D9B00F0D2FDA2
:102A500088460E904FF06042994B2846394600F068
:102A600095FC02910090974A954B41460E9800F0D4
:102A70008DFC80460391944A944B2846394600F0D9
:102A800085FC4246039B00F019FA914A7A4402EB16
:102A9000CB03D3E9002300F011FA05460791019812
:102AA00000F020FC0C9003912A46079B02990098A5
:102AB00000F004FA874A7A4402EBCB03D3E90023FF
:102AC0009346019300F0FAF9039B0C9A00F0F6F993
:102AD000002788463846039B0C9A00F07DFE5A4634
:102AE000019B00F079FE029B009A00F075FE2A46D9
:102AF000079B00F07FFD02460020069005986C4D74
:102B0000AAF10103184301D1734D069000200B4632
:102B100004903046214600F039FC82468B4623461D
:102B200030461946049A00F057FE3A46434600F0F4
:102B30002DFC52465B4600F0C1F906468A463A46ED
:102B400043462146049800F021FC04460F463246D5
:102B5000534600F0B3F9614A8B46914221DBABEB5F
:102B6000020353EA000210D122463B4600F034FE35
:102B7000804603915A4A5B4B3046514600F09EF91D
:102B80004246039B00F000FD27D20220FDF7F0FB38
:102B9000FFF716FC0A46294614B062F31E01BDE891
:102BA000F08D514B2BF000429A4216D34F4A0BEB5B
:102BB000020353EA000208D122463B4600F00CFE15
:102BC0003246534600F0E0FC07D80220FDF7D0FB68
:102BD000FFF7FEFB0A462946DEE72BF0004044499A
:102BE000444A01EB20514FF00008824223DA481C8E
:102BF0004FF4801121FA00F058443F4AC0F30A51C3
:102C00007A443E4BA1F2FF31CB4020EA0303C0F3EC
:102C1000130040F4801CC1F1140012682CFA00F873
:102C2000BBF1000FB8BFC8F100082046394600F0DC
:102C3000D3FD04460F4622463B463046514600F03F
:102C40003DF94FF0000B5A462D4B5846039100F0CA
:102C50009DFB00910A902B4A2B4B5846039900F09C
:102C600095FB0491029022463B465846039900F09A
:102C7000B3FD3246534600F0BDFC244A244B00F01D
:102C800085FB049B029A00F019F907468A46009BCF
:102C90000A9A00F013F904460E46009B0A9A00F0C7
:102CA0009BFD3A46534600F0A5FC33E05219000064
:102CB0000000F03F90190000C0180000000008401C
:102CC00009C7EE3FFD033ADCF5015B14E02F3EBE81
:102CD000981700005E1700000000F0BF0000904051
:102CE000FE822B654715973C00CC904000346F3F27
:102CF00001FCFFFF0000E03F8C160000FFFF0F000B
:102D0000432EE63F396CA80C615C20BEEF39FAFE19
:102D1000422EE63F0746224633460F91104619469B
:102D200000F034FB834602462E488A460B460521B6
:102D30007844FFF7E0FA5A46534600F027FB224654
:102D4000334600F057FC82468B463A4620463146D1
:102D50000F9B00F01BFB3A460F9B00F0AFF80F46AD
:102D60000A9000224FF080435046594600F034FD4F
:102D70000391009052465B462046314600F006FB28
:102D8000039B009A00F056F93B460A9A00F024FD96
:102D90002246334600F020FD0022134B00F02AFCAF
:102DA0000E46044601EB08510815002810DC424687
:102DB0002046314601F0A7F9FFF779FA042808BF49
:102DC000FFF706FB42462046314601F09CF90446D7
:102DD00006980B4614B022462946BDE8F04D00F097
:102DE000D5BA0000341500000000F03F2DE9F04195
:102DF00006460F4600F00AFC04000D4618BF0120ED
:102E0000284320F00040C0F17F6000F1E040C00F97
:102E10000ED0301C18BF0120384320F00040C0F114
:102E20007F6000F1E040C00F04BF0120FDF7A0FA71
:102E300020462946BDE8F08110B5FEF7EBFEFFF70E
:102E4000EFF8002211462E20FDF7C2FEBDE810402B
:102E50002E20FDF7AFBE000021F00042A2F160522B
:102E6000B2F5801F01F0004328BFD2F17F6C0BD96F
:102E70005FEA001C43EAC20242EB507018BF704781
:102E800028BF20F001007047B2F5801FBCBF184674
:102E900070474FEA410C1CF5001F02D2084601F0B2
:102EA0004AB870B500F01CFB00000089FFF7F6BFC0
:102EB0004FF00040A0F580007047000010B591EA87
:102EC000030F48BF83F0004300F18E84841A71EB36
:102ED000030C05D2121943EB0C03001B61EB0C0130
:102EE000DFF824E14FEA1154A4EB135C1EEA430F10
:102EF00018BF9EEA445F73D023EA0E03DCF1200E74
:102F000021EA045143F4801332D322FA0CFE10EB71
:102F10000E0023FA0CFE41EB0E01CCF1200E03FA59
:102F20000EFE10EB0E0051F10001B1F5801FCCF147
:102F3000200E32D201EB045112FA0EF2BDE810401D
:102F400058BF7047401C38BF5FEA420218BF704745
:102F5000002814BF20F0010041F100014FEA4103B5
:102F600013F5001F38BF7047A1F1C04100F006BB48
:102F7000012A43EB0302ACF1200CDCF11F0E32BF3F
:102F80004FF0000E23FA0CF310EB030041EB045159
:102F9000B4EB115FD0D0A1EB045101F580114908C9
:102FA0005FEA300001EB04510ED350F1000038BF4E
:102FB00012FA0EFE08D1BDE81040C9E7401C38BF28
:102FC0005FEA4202CAD1C3E7BDE810404FEA4103BD
:102FD00013F5001F38BF7047A1F1C04100F0CEBA11
:102FE0009EEA445F08D011EA5E0FBDE8104004BFBE
:102FF00001F0004100207047BDE8104070B500F0BE
:103000006FFA00BF64FBBE3E0000E0FF02494FF0D4
:10301000000001F046B800BF0000F87F491058BF1B
:10302000C1F140415B1058BFC3F140438B42EFF305
:10303000008070472DE9C04130B4DFF8A0C23CEAFF
:10304000111418BF3CEA131400F0EC8081EA030568
:103050001CEA111444EAD57418BF1CEA131500F0D9
:10306000C780A4EB05044FF0004545EAC12145EABD
:10307000C32341EA505143EA525304F17F74994209
:1030800004F500344FEAC0204FEAC22208BF904244
:1030900000F09C804FEA13650FF24016765D4FEA10
:1030A000134506FB05F7C7F1807706FB07F74FEAE4
:1030B000D737A7FB03687642C8F58038A7FB06CE52
:1030C00038BFA8F1010807FB08E64FF0000EA6FB89
:1030D000028CE6FB03CEDCF1000CCEF1004E38BFD3
:1030E000AEF1010EA6FB0C584FF000074FF00005A3
:1030F000E6FB0E87A1FB08C6A0FB07CE16EB0E066B
:1031000045F10005E1FB076515F1E04E7EBFA4F532
:1031100080345FEA46066D4116F1800745F10005EF
:103120004FEA17274FEA066647EA0567A6F1DE462B
:10313000B6F1805F4FEA15251FD9384624F0010CFF
:1031400005EBC471BCF1FE6F01EB0C1102D8F0BCB1
:10315000BDE8008124425CBF01F5801E9EEAC47F69
:1031600002D4F0BCBDE80081244238D4F0BCA1F107
:10317000C041BDE8004100F001BA4FEAD22242EA64
:1031800043524FEAD323A7FB02864FEAD02040EAFE
:10319000415007FB03661EEA0E0F4FEAD12105FBE3
:1031A000026658BFA6EB0056B6EB00564FEA520E29
:1031B0004EEAC37E18EB0E0E56EB530EBDD518EB40
:1031C00002085E417F1C55F10005B6E74FF48015FB
:1031D0004FF000074FF000064FF00008ADE7F0BCDD
:1031E0004FF0000001F1C04101F00041BDE8008155
:1031F00011EA0C1F0CEA131500D00CE013EA0C1FA7
:1032000000F025804FF00000F0BC81EA030101F0DE
:103210000041BDE80081F0BCBDE8004181EA030146
:1032200000F0ACB9F0BCBDE8004170B500F058F951
:10323000097EFC3E00F007B881EA03014FF0000070
:1032400001F00041704781EA030100F097B9F0BC3A
:10325000BDE800414FF0000021497047FFFDFBF938
:10326000F7F5F4F2F0EEEDEBE9E8E6E4E3E1E0DEB9
:10327000DDDBDAD8D7D5D4D3D1D0CFCDCCCBCAC82B
:10328000C7C6C5C4C2C1C0BFBEBDBCBBBAB9B8B752
:10329000B6B5B4B3B2B1B0AFAEADACABAAA9A8A845
:1032A000A7A6A5A4A3A3A2A1A09F9F9E9D9C9C9B13
:1032B0009A999998979796959594939392919190BE
:1032C0008F8F8E8E8D8C8C8B8B8A8989888887874F
:1032D0008685858484838382828181800000FF07C4
:1032E0000000F87F10F0004248BF4042B0FA80F37F
:1032F00010FA03F10AD0C3F11D0303F580634FEA0E
:10330000415002EB035202EBD12170474FF0000015
:103310007047000051EA030C17D41CF5801F58BFFA
:10332000BCF5801F00F10680994218BF704708BFA6
:103330009042704707D711F5801F58BF13F5801FC3
:1033400019D499427047894270471CF5801F08D5EF
:10335000BCF5801FF7D58B4218BF704708BF82426B
:1033600070474FF4001C1CEB410F38BF1CEB430FA0
:1033700001D28B42704770B500F0B2F89224490038
:103380004FF000514FF08053FFF748BEDFF848C1BF
:1033900070B51CEA111E1EBF1CEA13159EEA0C0F25
:1033A00095EA0C0F00F06F8081EA030423EA4C13C6
:1033B0004EEAD47E21EA4C1141F4801143F480138B
:1033C000AE44A1FB024CA0FB0365AEF17F7E361933
:1033D00055EB0C05A1FB034C4CF10003A0FB021CB8
:1033E00016EB0C06654153F10003094218BF46F085
:1033F000010613F4007F0BD14FEA03314FEA053089
:10340000340341EA155140EA16506FF003020AE016
:103410004FEAC3214FEAC520F40241EA555140EA80
:1034200056506FF0020202EB2E4201EB025585EA84
:10343000CE710AD05FEA440C18BF24F0004450F16A
:10344000000041F1000120EAD47040F2FE7C6245A8
:1034500000D270BDA84214BF4FF080444FF04044EA
:10346000002E08BF0024BEF1806FA8BFA1F1C041AB
:10347000BDE8704080F282804FF0000001F1C04151
:1034800001F0004170479EEA0C0F0CEA131518BFBB
:1034900095EA0C0F06D04FF0000081EA030E0EF003
:1034A000004170BD00F01CF88900013E00F007B833
:1034B00000F009B84FEA430C5FEA5C5C08D081EA8F
:1034C000030100F05BB84FEA410C5FEA5C5CF6D1A7
:1034D0004FF00000014970470000FF070000F87F2F
:1034E0000EF1020E2EF0030E5EF8046B364205D488
:1034F000012A43EB030515F5001F12D8012841EB03
:10350000010C1CF5001F0CD80ED14FEAD17C15F52B
:10351000001F0CEB4C0C0CF1020C08BF4CEBD37CE5
:1035200004E04FF0080C01E04FEAD37C0CEB4C05B3
:1035300026FA05F606F00706B6F1040C06D20EEBE5
:10354000860CBDE870404CF0010C6047DFE80CF0E1
:10355000090B02024FF000414FF00000A1F50021DD
:1035600070BD19461046012851EB010418BFD4F56F
:10357000001484BF002001F0004170BD0808A0F5D0
:1035800000114FEA3101704753EA010C17D41CF5C2
:10359000801F58BFBCF5801F00F106808B4218BF0A
:1035A000704708BF8242704707D713F5801F58BF86
:1035B00011F5801F19D48B4270479B4270471CF550
:1035C000801F08D5BCF5801FF7D5994218BF7047FA
:1035D00008BF904270474FF4001C1CEB430F38BFEC
:1035E0001CEB410F01D2994270470FB40CBC03BCD5
:1035F000FFF7C1BE91EA030F10B581F000413FF51E
:1036000065AC83F0004300F0EFB800002DE9F04115
:1036100001F5801CBCF5001FC0F2C3804FEA115CAD
:1036200021EA0C510CF1FD0C41F480115FEA5C0CB5
:103630000CF5C07C01D3400049413DA4890241EA18
:10364000905187028E0E0A0CA45D04FB04F602FB67
:1036500006F6C6F14046A4FB0662F60D46EA42268F
:1036600006FB06F4A4FB01235242C3F1404338BFDA
:103670005B1EA6FB02420024E6FB0324D20B42EAB7
:103680004446A6FB0623A1FB02E2A3FB07E4A41821
:103690004FF0000252F10002E3FB01426442C2F12A
:1036A000404E38BFAEF1010EA6FB04234FF00002DE
:1036B000E6FB0E32A2FB03464FF00004B61954F1AC
:1036C0000004E2FB0264A1FB06E6A4FB07E816EB9C
:1036D00008064FF0000858F10008E4FB0168764244
:1036E000C8F1405838BFA8F10108A2FB06E4A3FBCB
:1036F00008E52D194FF0000454F10004E2FB0854D2
:10370000A1FB05E6A7FB04E818EB06084FF000064E
:1037100056F10006E1FB048618F1200556F100067B
:10372000A809A8F11B08B10908F03F08B8F10A0F71
:1037300040EA86601CD901EB0C51BDE8F08100BF66
:10374000FCF5EEE8E2DDD8D3CFCBC7C3C0BDB9B638
:10375000B4B1AEACA9A7A5A3A19F9D9B9A9896953D
:103760009392908F8D8C8B898887868584838281C4
:10377000A0FB006800FB01F208EB4208B8EB8728C9
:1037800007D5341858EB0104D5D5401C51F1000180
:10379000D1E7341A78EB0104CDD4401E71F1000159
:1037A000C9E75FEA4C0C5FEA9C5C0DD105D34FF092
:1037B000000001F00041BDE8F081BDE8F04170B5C6
:1037C000FFF78EFE6DDBFFBEBDE8F0414FF000005D
:1037D000004970470000F87F10B591EA030F48BF19
:1037E00083F000433FF572AB841A71EB030C07D2F0
:1037F00012198CF0004C43EB0C03001B61EB0C0125
:10380000DFF8A4E14FEA1154A4EB135C1EEA430F66
:1038100018BF9EEA445F00F0B08023EA6E03524274
:1038200021EA0451C3EB6E0338BF5B1EDCF1200EAE
:1038300025D322FA0CFE10EB0E0043FA0CFE41EBEE
:103840000E01CCF1200E03FA0EFE10EB0E0051F12A
:103850000001CCF1200E29D412FA0EF201EB045132
:10386000BDE8104058BF7047401C1CBFB2F1004F6C
:10387000704700280CBF491C20F00100704712EB74
:10388000020E43EB030218BF4FF0010E4EEA420254
:10389000ACF1200CDCF11E0E54D943FA0CFE10EBF7
:1038A0000E0051F1FF31CCF11E0ED5D50EF1010EF7
:1038B00012FA0EFE404141EB010101EB445C5FEA6C
:1038C0005C5C10D910EBDE7001EB045138BFBEF127
:1038D000004FBDE8104018BF704700280CBF491CBE
:1038E00020F00100704730D24FEAD42C11F50011BE
:1038F00024F400641BD0B1FA81F20B3AA41AA41E7E
:10390000D2F12003914030FA03F31943904001EBC8
:10391000CC71002C01EB0451BDE81040A8BF7047EA
:1039200001F1C0414FF0000001F000417047B0FAD2
:1039300080F310FA03F100D110BDE41A173C4805DA
:10394000C90AE4E701EB045110BD491001EB045131
:10395000BDE810404FEA300002E04FF00001704730
:103960004A0008BF0042F8D0B2F5001F28BF7047D8
:1039700001F000414FF0000070479EEA445F07D01D
:1039800011EA5E0FBDE8104004BF0021002070471F
:10399000BDE8104070B5FFF7A3FD00BF40DFF63E65
:1039A00083F00041104670470000E0FF43004FEAFB
:1039B000D30C4FEA3C0C43401FBF40070CF1605151
:1039C00013F0FE4F70471CF0006F03D100200CF085
:1039D000004170470CF0004343EA507010B540EAD4
:1039E000CC0000F062FA00BF000000924FEA000134
:1039F000FFF7C4BD4FF000414FF00000A1F50021DA
:103A00007047000090EA010F48BF81F0004100F1CB
:103A1000DA82421A3CBF801A89184FEAD0524FF01E
:103A20007F4C1CEA410FA2EBD15318BF9CEA026FF6
:103A300000F03B804FF0004C4CEA00204CEA0121A2
:103A400021FA03FC10EB0C0C1ED202F1FF325FEAEC
:103A50001C2040EBC25038BF70471CF07F0F4FEA6C
:103A6000400C18BFBCF17F4F38BF7047C3F1200333
:103A7000994008BF20F00100BCF17F4F38BF70476C
:103A8000A0F1C04000F057BA4FEA3C00000A40EBFA
:103A9000C25028BF1CF0FF0F4FEA400CE6D018BF01
:103AA000BCF17F4F38BF7047EAE79CEA026F05D050
:103AB00010EA5C0F08BF00F00040704710B500F03E
:103AC000F4F900BF64FBBE3E014800F0EABA00BF53
:103AD0000000C07F401058BFC0F14040491058BF9F
:103AE000C1F140418142EFF3008070474FF47F0CF9
:103AF0001CEAD0121EBF1CEAD11392EA0C0F93EA03
:103B00000C0F00F0858090EA010F48BF42F48072EC
:103B100040F4000C41F400002CF07F4120F07F4085
:103B200000B58142A2EB03020FF2081CACEB504E31
:103B3000C0F100009EF800E04FEA4E0E00FB0EFCC4
:103B400038BF49004FEA2C1C02F5FA020CFB0EF3B9
:103B50004FEACE1E4FEA112C4FEAC1210EEB635EF5
:103B600042EB22420EFB0CFC4FEA1C5300FB0311FC
:103B70004FEA112C4FEA01310EFB0CFC4FEADC4CF2
:103B800000FB0C11C14228BF09184CEB03335DF850
:103B900004EB10EB410143EBC250B2F57C0F38BF90
:103BA000704729D512F0F00F1CBF00F1C04000F0A3
:103BB00000407047008182838485868788898B8C4A
:103BC0008D8E8F919293959697999A9C9D9FA0A286
:103BD000A3A5A7A8AAACAEB0B2B3B5B7B9BCBEC0D6
:103BE000C2C5C7C9CCCED1D4D7D9DCDFE2E6E9EC77
:103BF000F0F3F7FAFE0000004FEA400C0CF1807C75
:103C0000BCF17E4F28BF7047B0F1C04000F093B9BF
:103C100090EA010F0CEAD11348BF42F4807262456A
:103C200038BF634507D213F47F0F16D080EA010036
:103C300000F00040704710B500F037F9097EFC3EF7
:103C400000F005B880EA010000F00040704780EA0B
:103C5000010000F0004000F06EB912F47F0F04BFC5
:103C60000248704780EA010000F065B90000C07F9B
:103C700041000B0ED3F19E0208D950F400034FEA25
:103C8000032323FA02F048BF4042704710B500F00A
:103C90000CF900BF49922480002070476FF0004269
:103CA00082EA200070470000C10DD1F19E0206DBC0
:103CB0004FEA002343F0004323FA02F0704700422A
:103CC00007D54FEA4001B1F1FE4F02D24FF000009C
:103CD000704710B500F0E9F8499224800020704741
:103CE0006FEA20007047000010F0004148BF4042DA
:103CF000B0FA80F310FA03F2C3F19D030BD051EA3E
:103D0000C35101EB1220530638BF704700F1010088
:103D100008BF20F001007047B0FA80F310FA03F2F8
:103D2000C3F19D030AD0D90501EB1220530638BF19
:103D3000704700F1010008BF20F00100704700004B
:103D400050EA010C00F113801CF5000F58BFBCF5C0
:103D5000000F01D48842704707D710F5000F58BFF5
:103D600011F5000F15D488427047894270471CF541
:103D7000000F04D5BCF5000FF7D5814270474FF016
:103D8000807C1CEB400F38BF1CEB410F01D28142FD
:103D9000704710B500F089F8922449004FF00050A8
:103DA0004FF08051FFF796BE4FF47F0C1CEAD01203
:103DB0001EBF1CEAD11392EA0C0F93EA0C0F00F01D
:103DC000478090EA010F48BF42F480724FF0004CE8
:103DD0004CEA00204CEA012102EB0302A0FB011394
:103DE000A2F50002002918BF43F001035B0028BFC1
:103DF0004FEA330342EB22425FEA132C4CEBC250F2
:103E00002EBFBCEB436FB2F57C0F70474FEA036CDB
:103E1000BCF1004F08BF20F00100B2F57C0F38BFA5
:103E200070470BD582F0FF0212F5803FC8BF704784
:103E300000F1C040D8BF00F00040704700F5000C12
:103E40005FEA4C0C48BF7047B0F1C04000F073B857
:103E500090EA010F0CEAD11348BF42F48072624528
:103E600038BF634504D280EA010000F0004070478B
:103E700010B500F01AF800BF8900013E00F007B845
:103E800000F009B85FEA410C5FEA1C6C08D080EAD8
:103E9000010000F050B85FEA400C5FEA1C6CF6D1FC
:103EA0004FF00040A0F5800070470EF1020E2EF09A
:103EB000030E5EF8044B244204D44FEA4102B2F1EF
:103EC0007F4F11D84FEA4003B3F17F4F0CD80ED18A
:103ED0004FEAD07CB2F17F4F0CEB4C0C0CF1020C92
:103EE00008BF4CEBD17C04E04FF0080C01E04FEA36
:103EF000D17C0CEB4C0324FA03F404F00704B4F176
:103F0000040C06D20EEB840CBDE810404CF0010C02
:103F10006047DFE80CF0070802024FF00040A0F510
:103F2000800010BD0846420018BFD2F1807288BFE1
:103F300000F0004010BDFF2141EAD050C00570479D
:103F400051EA000C00F113801CF5000F58BFBCF5BE
:103F5000000F01D48142704707D711F5000F58BFF9
:103F600010F5000F15D481427047894270471CF547
:103F7000000F04D5BCF5000FF7D5884270474FF00D
:103F8000807C1CEB410F38BF1CEB400F01D28842F4
:103F9000704780EA010081EA000180EA0100FFF732
:103FA000F8BE80F0004090EA010F7FF532AD81F05D
:103FB000004100F008B8000090EA010F48BF81F00E
:103FC00000413FF526AD421A04D882F00042A0EB32
:103FD000020011444FEAD0524FF07F4C1CEA410FCF
:103FE000A2EBD15318BF9CEA026F4AD04FF0004CAD
:103FF0004CEA00204CEA012121FA03FCB0EB0C0C46
:104000000FD412F0FE0F36D05FEA4C001DD500121F
:1040100040EBC25038BF70471CF03F0F18BF7047CD
:104020000BE0A2F101025FEA1C2040EBC25038BF56
:1040300070471CF07F0F18BF7047C3F120039940F1
:1040400014BF401E20F00100704780084FEA122381
:1040500008BF7047B0FA80FCA2EB0C02CCF1280C30
:1040600060FA0CF093EA122F04BF00EBC2507047C5
:104070004FEAC3707047130A5FEADC1008BF70474D
:10408000F6E79CEA026F04D010EA5C0F08BF00203C
:10409000704710B5FFF709FF40DFF63E81F00040A2
:1040A00070470CF00F03092B08BF082000F07F8039
:1040B0000A2B0BD0082B18BF704708BF1CF0400F0D
:1040C0000AD04FF000004FF0000170471CF0400F85
:1040D00018BF4FF0004070471CF0100F08D020F0C0
:1040E000704300F07F4242EAD3014FEA43707047C9
:1040F00000F0604021F07F4242EA000201F07F4080
:1041000040EA727070474FF0FF0C4CF4E06C1CEA10
:1041100011531CBF9CEA030C9445C2BFDA4201EB69
:1041200002517047002B0DD0BCF1000F0FD0002AB8
:1041300001F00041A4BF41F0E04141F07F614FF048
:104140000000704701F000414FF00000704750EA56
:1041500001334FF09B0C18BF4CF0806C7EF456AFCF
:1041600070474FF0FF0212EAD0521CBF92F0FF03DB
:104170008B42C2BFD14200EBC1507047002A0AD027
:10418000002B0BD0002900F00040A4BF40F0FE40FF
:1041900040F40000704700F00040704743024FF0C9
:1041A0000B0C18BF4CF0806C7FF48EAC70471CF485
:1041B000801F11D01CF4E02F03D06FEACC314900EE
:1041C00070474FF04050EFF3008222F0704242EA15
:1041D000000282F3008870474FF000007047010230
:1041E00002030405060708090A0B0C0D0E0F101038
:1041F0000000000000000000010203040607080997
:104200000000000001020304000000000000F03F75
:10421000000000000000F83F000000000000000067
:104220000000004003B8E23F000000000000000072
:1042300006D0CF43EBFD4C3E033333333333E33F00
:10424000FFAB6FDBB66DDB3F4D268F515555D53F2C
:1042500001411DA96074D13F65DBC9934A86CD3FFA
:10426000EF4E454A287ECA3F3E5555555555C53FE8
:1042700093BDBE166CC166BF2CDE25AF6A56113FDA
:10428000F16BD2C541BDBBBED0A4BE726937663EDC
:104290000000000000000000B842000800000020FC
:1042A0001C0000006C010008D44200081C00002023
:1042B000C4F10000880100080000000000000000B8
:1042C00000000000010000001000000000000000DD
:0442D0000024F400D2
:0400000508000131BD
:00000001FF
